{
  "_format": "hh-sol-artifact-1",
  "contractName": "GovernanceToken",
  "sourceName": "contracts/GovernanceToken.sol",
  "abi": [
    {
      "inputs": [],
      "stateMutability": "nonpayable",
      "type": "constructor"
    },
    {
      "anonymous": false,
      "inputs": [
        {
          "indexed": true,
          "internalType": "address",
          "name": "owner",
          "type": "address"
        },
        {
          "indexed": true,
          "internalType": "address",
          "name": "spender",
          "type": "address"
        },
        {
          "indexed": false,
          "internalType": "uint256",
          "name": "value",
          "type": "uint256"
        }
      ],
      "name": "Approval",
      "type": "event"
    },
    {
      "anonymous": false,
      "inputs": [
        {
          "indexed": true,
          "internalType": "address",
          "name": "delegator",
          "type": "address"
        },
        {
          "indexed": true,
          "internalType": "address",
          "name": "fromDelegate",
          "type": "address"
        },
        {
          "indexed": true,
          "internalType": "address",
          "name": "toDelegate",
          "type": "address"
        }
      ],
      "name": "DelegateChanged",
      "type": "event"
    },
    {
      "anonymous": false,
      "inputs": [
        {
          "indexed": true,
          "internalType": "address",
          "name": "delegate",
          "type": "address"
        },
        {
          "indexed": false,
          "internalType": "uint256",
          "name": "previousBalance",
          "type": "uint256"
        },
        {
          "indexed": false,
          "internalType": "uint256",
          "name": "newBalance",
          "type": "uint256"
        }
      ],
      "name": "DelegateVotesChanged",
      "type": "event"
    },
    {
      "anonymous": false,
      "inputs": [
        {
          "indexed": true,
          "internalType": "address",
          "name": "from",
          "type": "address"
        },
        {
          "indexed": true,
          "internalType": "address",
          "name": "to",
          "type": "address"
        },
        {
          "indexed": false,
          "internalType": "uint256",
          "name": "value",
          "type": "uint256"
        }
      ],
      "name": "Transfer",
      "type": "event"
    },
    {
      "inputs": [],
      "name": "DOMAIN_SEPARATOR",
      "outputs": [
        {
          "internalType": "bytes32",
          "name": "",
          "type": "bytes32"
        }
      ],
      "stateMutability": "view",
      "type": "function"
    },
    {
      "inputs": [
        {
          "internalType": "address",
          "name": "owner",
          "type": "address"
        },
        {
          "internalType": "address",
          "name": "spender",
          "type": "address"
        }
      ],
      "name": "allowance",
      "outputs": [
        {
          "internalType": "uint256",
          "name": "",
          "type": "uint256"
        }
      ],
      "stateMutability": "view",
      "type": "function"
    },
    {
      "inputs": [
        {
          "internalType": "address",
          "name": "spender",
          "type": "address"
        },
        {
          "internalType": "uint256",
          "name": "amount",
          "type": "uint256"
        }
      ],
      "name": "approve",
      "outputs": [
        {
          "internalType": "bool",
          "name": "",
          "type": "bool"
        }
      ],
      "stateMutability": "nonpayable",
      "type": "function"
    },
    {
      "inputs": [
        {
          "internalType": "address",
          "name": "account",
          "type": "address"
        }
      ],
      "name": "balanceOf",
      "outputs": [
        {
          "internalType": "uint256",
          "name": "",
          "type": "uint256"
        }
      ],
      "stateMutability": "view",
      "type": "function"
    },
    {
      "inputs": [
        {
          "internalType": "address",
          "name": "account",
          "type": "address"
        },
        {
          "internalType": "uint32",
          "name": "pos",
          "type": "uint32"
        }
      ],
      "name": "checkpoints",
      "outputs": [
        {
          "components": [
            {
              "internalType": "uint32",
              "name": "fromBlock",
              "type": "uint32"
            },
            {
              "internalType": "uint224",
              "name": "votes",
              "type": "uint224"
            }
          ],
          "internalType": "struct ERC20Votes.Checkpoint",
          "name": "",
          "type": "tuple"
        }
      ],
      "stateMutability": "view",
      "type": "function"
    },
    {
      "inputs": [],
      "name": "decimals",
      "outputs": [
        {
          "internalType": "uint8",
          "name": "",
          "type": "uint8"
        }
      ],
      "stateMutability": "view",
      "type": "function"
    },
    {
      "inputs": [
        {
          "internalType": "address",
          "name": "spender",
          "type": "address"
        },
        {
          "internalType": "uint256",
          "name": "subtractedValue",
          "type": "uint256"
        }
      ],
      "name": "decreaseAllowance",
      "outputs": [
        {
          "internalType": "bool",
          "name": "",
          "type": "bool"
        }
      ],
      "stateMutability": "nonpayable",
      "type": "function"
    },
    {
      "inputs": [
        {
          "internalType": "address",
          "name": "delegatee",
          "type": "address"
        }
      ],
      "name": "delegate",
      "outputs": [],
      "stateMutability": "nonpayable",
      "type": "function"
    },
    {
      "inputs": [
        {
          "internalType": "address",
          "name": "delegatee",
          "type": "address"
        },
        {
          "internalType": "uint256",
          "name": "nonce",
          "type": "uint256"
        },
        {
          "internalType": "uint256",
          "name": "expiry",
          "type": "uint256"
        },
        {
          "internalType": "uint8",
          "name": "v",
          "type": "uint8"
        },
        {
          "internalType": "bytes32",
          "name": "r",
          "type": "bytes32"
        },
        {
          "internalType": "bytes32",
          "name": "s",
          "type": "bytes32"
        }
      ],
      "name": "delegateBySig",
      "outputs": [],
      "stateMutability": "nonpayable",
      "type": "function"
    },
    {
      "inputs": [
        {
          "internalType": "address",
          "name": "account",
          "type": "address"
        }
      ],
      "name": "delegates",
      "outputs": [
        {
          "internalType": "address",
          "name": "",
          "type": "address"
        }
      ],
      "stateMutability": "view",
      "type": "function"
    },
    {
      "inputs": [
        {
          "internalType": "uint256",
          "name": "blockNumber",
          "type": "uint256"
        }
      ],
      "name": "getPastTotalSupply",
      "outputs": [
        {
          "internalType": "uint256",
          "name": "",
          "type": "uint256"
        }
      ],
      "stateMutability": "view",
      "type": "function"
    },
    {
      "inputs": [
        {
          "internalType": "address",
          "name": "account",
          "type": "address"
        },
        {
          "internalType": "uint256",
          "name": "blockNumber",
          "type": "uint256"
        }
      ],
      "name": "getPastVotes",
      "outputs": [
        {
          "internalType": "uint256",
          "name": "",
          "type": "uint256"
        }
      ],
      "stateMutability": "view",
      "type": "function"
    },
    {
      "inputs": [
        {
          "internalType": "address",
          "name": "account",
          "type": "address"
        }
      ],
      "name": "getVotes",
      "outputs": [
        {
          "internalType": "uint256",
          "name": "",
          "type": "uint256"
        }
      ],
      "stateMutability": "view",
      "type": "function"
    },
    {
      "inputs": [
        {
          "internalType": "address",
          "name": "spender",
          "type": "address"
        },
        {
          "internalType": "uint256",
          "name": "addedValue",
          "type": "uint256"
        }
      ],
      "name": "increaseAllowance",
      "outputs": [
        {
          "internalType": "bool",
          "name": "",
          "type": "bool"
        }
      ],
      "stateMutability": "nonpayable",
      "type": "function"
    },
    {
      "inputs": [],
      "name": "name",
      "outputs": [
        {
          "internalType": "string",
          "name": "",
          "type": "string"
        }
      ],
      "stateMutability": "view",
      "type": "function"
    },
    {
      "inputs": [
        {
          "internalType": "address",
          "name": "owner",
          "type": "address"
        }
      ],
      "name": "nonces",
      "outputs": [
        {
          "internalType": "uint256",
          "name": "",
          "type": "uint256"
        }
      ],
      "stateMutability": "view",
      "type": "function"
    },
    {
      "inputs": [
        {
          "internalType": "address",
          "name": "account",
          "type": "address"
        }
      ],
      "name": "numCheckpoints",
      "outputs": [
        {
          "internalType": "uint32",
          "name": "",
          "type": "uint32"
        }
      ],
      "stateMutability": "view",
      "type": "function"
    },
    {
      "inputs": [
        {
          "internalType": "address",
          "name": "owner",
          "type": "address"
        },
        {
          "internalType": "address",
          "name": "spender",
          "type": "address"
        },
        {
          "internalType": "uint256",
          "name": "value",
          "type": "uint256"
        },
        {
          "internalType": "uint256",
          "name": "deadline",
          "type": "uint256"
        },
        {
          "internalType": "uint8",
          "name": "v",
          "type": "uint8"
        },
        {
          "internalType": "bytes32",
          "name": "r",
          "type": "bytes32"
        },
        {
          "internalType": "bytes32",
          "name": "s",
          "type": "bytes32"
        }
      ],
      "name": "permit",
      "outputs": [],
      "stateMutability": "nonpayable",
      "type": "function"
    },
    {
      "inputs": [],
      "name": "s_maxSupply",
      "outputs": [
        {
          "internalType": "uint256",
          "name": "",
          "type": "uint256"
        }
      ],
      "stateMutability": "view",
      "type": "function"
    },
    {
      "inputs": [],
      "name": "symbol",
      "outputs": [
        {
          "internalType": "string",
          "name": "",
          "type": "string"
        }
      ],
      "stateMutability": "view",
      "type": "function"
    },
    {
      "inputs": [],
      "name": "totalSupply",
      "outputs": [
        {
          "internalType": "uint256",
          "name": "",
          "type": "uint256"
        }
      ],
      "stateMutability": "view",
      "type": "function"
    },
    {
      "inputs": [
        {
          "internalType": "address",
          "name": "to",
          "type": "address"
        },
        {
          "internalType": "uint256",
          "name": "amount",
          "type": "uint256"
        }
      ],
      "name": "transfer",
      "outputs": [
        {
          "internalType": "bool",
          "name": "",
          "type": "bool"
        }
      ],
      "stateMutability": "nonpayable",
      "type": "function"
    },
    {
      "inputs": [
        {
          "internalType": "address",
          "name": "from",
          "type": "address"
        },
        {
          "internalType": "address",
          "name": "to",
          "type": "address"
        },
        {
          "internalType": "uint256",
          "name": "amount",
          "type": "uint256"
        }
      ],
      "name": "transferFrom",
      "outputs": [
        {
          "internalType": "bool",
          "name": "",
          "type": "bool"
        }
      ],
      "stateMutability": "nonpayable",
      "type": "function"
    }
  ],
  "bytecode": "0x61014060405269d3c21bcecceda1000000600a553480156200002057600080fd5b506040518060400160405280600f81526020017f476f7665726e616e6365546f6b656e0000000000000000000000000000000000815250806040518060400160405280600181526020017f31000000000000000000000000000000000000000000000000000000000000008152506040518060400160405280600f81526020017f476f7665726e616e6365546f6b656e00000000000000000000000000000000008152506040518060400160405280600281526020017f475400000000000000000000000000000000000000000000000000000000000081525081600390816200010b919062000e30565b5080600490816200011d919062000e30565b50505060008280519060200120905060008280519060200120905060007f8b73c3c69bb8fe3d512ecc4cf759cc79239f7b179b0ffacaa9a75d522b39400f90508260e081815250508161010081815250504660a0818152505062000189818484620001ed60201b60201c565b608081815250503073ffffffffffffffffffffffffffffffffffffffff1660c08173ffffffffffffffffffffffffffffffffffffffff1681525050806101208181525050505050505050620001e733600a546200022960201b60201c565b6200131f565b600083838346306040516020016200020a95949392919062000f88565b6040516020818303038152906040528051906020012090509392505050565b6200024082826200024460201b62000eaa1760201c565b5050565b6200025b82826200030260201b62000f371760201c565b6200026b6200046f60201b60201c565b7bffffffffffffffffffffffffffffffffffffffffffffffffffffffff16620002996200049360201b60201c565b1115620002dd576040517f08c379a0000000000000000000000000000000000000000000000000000000008152600401620002d4906200106c565b60405180910390fd5b620002fc60096200049d60201b6200108d1783620004b560201b60201c565b50505050565b600073ffffffffffffffffffffffffffffffffffffffff168273ffffffffffffffffffffffffffffffffffffffff160362000374576040517f08c379a00000000000000000000000000000000000000000000000000000000081526004016200036b90620010de565b60405180910390fd5b6200038860008383620007c260201b60201c565b80600260008282546200039c91906200112f565b92505081905550806000808473ffffffffffffffffffffffffffffffffffffffff1673ffffffffffffffffffffffffffffffffffffffff168152602001908152602001600020600082825401925050819055508173ffffffffffffffffffffffffffffffffffffffff16600073ffffffffffffffffffffffffffffffffffffffff167fddf252ad1be2c89b69c2b068fc378daa952ba7f163c4a11628f55a4df523b3ef836040516200044f91906200116a565b60405180910390a36200046b60008383620007c760201b60201c565b5050565b60007bffffffffffffffffffffffffffffffffffffffffffffffffffffffff905090565b6000600254905090565b60008183620004ad91906200112f565b905092915050565b60008060008580549050905060008082146200059057620004eb87600184620004df919062001187565b620007e460201b60201c565b6040518060400160405290816000820160009054906101000a900463ffffffff1663ffffffff1663ffffffff1681526020016000820160049054906101000a90047bffffffffffffffffffffffffffffffffffffffffffffffffffffffff167bffffffffffffffffffffffffffffffffffffffffffffffffffffffff167bffffffffffffffffffffffffffffffffffffffffffffffffffffffff1681525050620005cc565b6040518060400160405280600063ffffffff16815260200160007bffffffffffffffffffffffffffffffffffffffffffffffffffffffff168152505b905080602001517bffffffffffffffffffffffffffffffffffffffffffffffffffffffff169350620005ff84868860201c565b92506000821180156200061b575043816000015163ffffffff16145b15620006ae576200063783620007f960201b620010a31760201c565b62000657886001856200064b919062001187565b620007e460201b60201c565b60000160046101000a8154817bffffffffffffffffffffffffffffffffffffffffffffffffffffffff02191690837bffffffffffffffffffffffffffffffffffffffffffffffffffffffff160217905550620007b8565b866040518060400160405280620006d0436200086760201b6200110e1760201c565b63ffffffff168152602001620006f186620007f960201b620010a31760201c565b7bffffffffffffffffffffffffffffffffffffffffffffffffffffffff168152509080600181540180825580915050600190039060005260206000200160009091909190915060008201518160000160006101000a81548163ffffffff021916908363ffffffff16021790555060208201518160000160046101000a8154817bffffffffffffffffffffffffffffffffffffffffffffffffffffffff02191690837bffffffffffffffffffffffffffffffffffffffffffffffffffffffff16021790555050505b5050935093915050565b505050565b620007df838383620008bd60201b620011611760201c565b505050565b60008260005281602060002001905092915050565b60007bffffffffffffffffffffffffffffffffffffffffffffffffffffffff80168211156200085f576040517f08c379a0000000000000000000000000000000000000000000000000000000008152600401620008569062001238565b60405180910390fd5b819050919050565b600063ffffffff8016821115620008b5576040517f08c379a0000000000000000000000000000000000000000000000000000000008152600401620008ac90620012d0565b60405180910390fd5b819050919050565b620008d58383836200090d60201b6200118c1760201c565b62000908620008ea846200091260201b60201c565b620008fb846200091260201b60201c565b836200097b60201b60201c565b505050565b505050565b6000600760008373ffffffffffffffffffffffffffffffffffffffff1673ffffffffffffffffffffffffffffffffffffffff16815260200190815260200160002060009054906101000a900473ffffffffffffffffffffffffffffffffffffffff169050919050565b8173ffffffffffffffffffffffffffffffffffffffff168373ffffffffffffffffffffffffffffffffffffffff1614158015620009b85750600081115b1562000b9957600073ffffffffffffffffffffffffffffffffffffffff168373ffffffffffffffffffffffffffffffffffffffff161462000aab5760008062000a52600860008773ffffffffffffffffffffffffffffffffffffffff1673ffffffffffffffffffffffffffffffffffffffff16815260200190815260200160002062000b9e60201b620011911785620004b560201b60201c565b915091508473ffffffffffffffffffffffffffffffffffffffff167fdec2bacdd2f05b59de34da9b523dff8be42e5e38e818c82fdb0bae774387a724838360405162000aa0929190620012f2565b60405180910390a250505b600073ffffffffffffffffffffffffffffffffffffffff168273ffffffffffffffffffffffffffffffffffffffff161462000b985760008062000b3f600860008673ffffffffffffffffffffffffffffffffffffffff1673ffffffffffffffffffffffffffffffffffffffff1681526020019081526020016000206200049d60201b6200108d1785620004b560201b60201c565b915091508373ffffffffffffffffffffffffffffffffffffffff167fdec2bacdd2f05b59de34da9b523dff8be42e5e38e818c82fdb0bae774387a724838360405162000b8d929190620012f2565b60405180910390a250505b5b505050565b6000818362000bae919062001187565b905092915050565b600081519050919050565b7f4e487b7100000000000000000000000000000000000000000000000000000000600052604160045260246000fd5b7f4e487b7100000000000000000000000000000000000000000000000000000000600052602260045260246000fd5b6000600282049050600182168062000c3857607f821691505b60208210810362000c4e5762000c4d62000bf0565b5b50919050565b60008190508160005260206000209050919050565b60006020601f8301049050919050565b600082821b905092915050565b60006008830262000cb87fffffffffffffffffffffffffffffffffffffffffffffffffffffffffffffffff8262000c79565b62000cc4868362000c79565b95508019841693508086168417925050509392505050565b6000819050919050565b6000819050919050565b600062000d1162000d0b62000d058462000cdc565b62000ce6565b62000cdc565b9050919050565b6000819050919050565b62000d2d8362000cf0565b62000d4562000d3c8262000d18565b84845462000c86565b825550505050565b600090565b62000d5c62000d4d565b62000d6981848462000d22565b505050565b5b8181101562000d915762000d8560008262000d52565b60018101905062000d6f565b5050565b601f82111562000de05762000daa8162000c54565b62000db58462000c69565b8101602085101562000dc5578190505b62000ddd62000dd48562000c69565b83018262000d6e565b50505b505050565b600082821c905092915050565b600062000e056000198460080262000de5565b1980831691505092915050565b600062000e20838362000df2565b9150826002028217905092915050565b62000e3b8262000bb6565b67ffffffffffffffff81111562000e575762000e5662000bc1565b5b62000e63825462000c1f565b62000e7082828562000d95565b600060209050601f83116001811462000ea8576000841562000e93578287015190505b62000e9f858262000e12565b86555062000f0f565b601f19841662000eb88662000c54565b60005b8281101562000ee25784890151825560018201915060208501945060208101905062000ebb565b8683101562000f02578489015162000efe601f89168262000df2565b8355505b6001600288020188555050505b505050505050565b6000819050919050565b62000f2c8162000f17565b82525050565b62000f3d8162000cdc565b82525050565b600073ffffffffffffffffffffffffffffffffffffffff82169050919050565b600062000f708262000f43565b9050919050565b62000f828162000f63565b82525050565b600060a08201905062000f9f600083018862000f21565b62000fae602083018762000f21565b62000fbd604083018662000f21565b62000fcc606083018562000f32565b62000fdb608083018462000f77565b9695505050505050565b600082825260208201905092915050565b7f4552433230566f7465733a20746f74616c20737570706c79207269736b73206f60008201527f766572666c6f77696e6720766f74657300000000000000000000000000000000602082015250565b60006200105460308362000fe5565b9150620010618262000ff6565b604082019050919050565b60006020820190508181036000830152620010878162001045565b9050919050565b7f45524332303a206d696e7420746f20746865207a65726f206164647265737300600082015250565b6000620010c6601f8362000fe5565b9150620010d3826200108e565b602082019050919050565b60006020820190508181036000830152620010f981620010b7565b9050919050565b7f4e487b7100000000000000000000000000000000000000000000000000000000600052601160045260246000fd5b60006200113c8262000cdc565b9150620011498362000cdc565b925082820190508082111562001164576200116362001100565b5b92915050565b600060208201905062001181600083018462000f32565b92915050565b6000620011948262000cdc565b9150620011a18362000cdc565b9250828203905081811115620011bc57620011bb62001100565b5b92915050565b7f53616665436173743a2076616c756520646f65736e27742066697420696e203260008201527f3234206269747300000000000000000000000000000000000000000000000000602082015250565b60006200122060278362000fe5565b91506200122d82620011c2565b604082019050919050565b60006020820190508181036000830152620012538162001211565b9050919050565b7f53616665436173743a2076616c756520646f65736e27742066697420696e203360008201527f3220626974730000000000000000000000000000000000000000000000000000602082015250565b6000620012b860268362000fe5565b9150620012c5826200125a565b604082019050919050565b60006020820190508181036000830152620012eb81620012a9565b9050919050565b600060408201905062001309600083018562000f32565b62001318602083018462000f32565b9392505050565b60805160a05160c05160e05161010051610120516138936200136f60003960006117280152600061176a015260006117490152600061167e015260006116d4015260006116fd01526138936000f3fe608060405234801561001057600080fd5b506004361061014d5760003560e01c80636fcfff45116100c3578063a457c2d71161007c578063a457c2d714610402578063a9059cbb14610432578063c3cda52014610462578063d505accf1461047e578063dd62ed3e1461049a578063f1127ed8146104ca5761014d565b80636fcfff45146102f457806370a08231146103245780637ecebe00146103545780638e539e8c1461038457806395d89b41146103b45780639ab24eb0146103d25761014d565b80633644e515116101155780633644e5151461020c578063395093511461022a5780633a46b1a81461025a578063587cde1e1461028a5780635c19a95c146102ba5780635d641847146102d65761014d565b806306fdde0314610152578063095ea7b31461017057806318160ddd146101a057806323b872dd146101be578063313ce567146101ee575b600080fd5b61015a6104fa565b6040516101679190612578565b60405180910390f35b61018a60048036038101906101859190612633565b61058c565b604051610197919061268e565b60405180910390f35b6101a86105af565b6040516101b591906126b8565b60405180910390f35b6101d860048036038101906101d391906126d3565b6105b9565b6040516101e5919061268e565b60405180910390f35b6101f66105e8565b6040516102039190612742565b60405180910390f35b6102146105f1565b6040516102219190612776565b60405180910390f35b610244600480360381019061023f9190612633565b610600565b604051610251919061268e565b60405180910390f35b610274600480360381019061026f9190612633565b610637565b60405161028191906126b8565b60405180910390f35b6102a4600480360381019061029f9190612791565b6106cb565b6040516102b191906127cd565b60405180910390f35b6102d460048036038101906102cf9190612791565b610734565b005b6102de610748565b6040516102eb91906126b8565b60405180910390f35b61030e60048036038101906103099190612791565b61074e565b60405161031b9190612807565b60405180910390f35b61033e60048036038101906103399190612791565b6107a2565b60405161034b91906126b8565b60405180910390f35b61036e60048036038101906103699190612791565b6107ea565b60405161037b91906126b8565b60405180910390f35b61039e60048036038101906103999190612822565b61083a565b6040516103ab91906126b8565b60405180910390f35b6103bc610890565b6040516103c99190612578565b60405180910390f35b6103ec60048036038101906103e79190612791565b610922565b6040516103f991906126b8565b60405180910390f35b61041c60048036038101906104179190612633565b610a33565b604051610429919061268e565b60405180910390f35b61044c60048036038101906104479190612633565b610aaa565b604051610459919061268e565b60405180910390f35b61047c600480360381019061047791906128a7565b610acd565b005b61049860048036038101906104939190612934565b610bd1565b005b6104b460048036038101906104af91906129d6565b610d13565b6040516104c191906126b8565b60405180910390f35b6104e460048036038101906104df9190612a42565b610d9a565b6040516104f19190612af7565b60405180910390f35b60606003805461050990612b41565b80601f016020809104026020016040519081016040528092919081815260200182805461053590612b41565b80156105825780601f1061055757610100808354040283529160200191610582565b820191906000526020600020905b81548152906001019060200180831161056557829003601f168201915b5050505050905090565b6000806105976111a7565b90506105a48185856111af565b600191505092915050565b6000600254905090565b6000806105c46111a7565b90506105d1858285611378565b6105dc858585611404565b60019150509392505050565b60006012905090565b60006105fb61167a565b905090565b60008061060b6111a7565b905061062c81858561061d8589610d13565b6106279190612ba1565b6111af565b600191505092915050565b600043821061067b576040517f08c379a000000000000000000000000000000000000000000000000000000000815260040161067290612c21565b60405180910390fd5b6106c3600860008573ffffffffffffffffffffffffffffffffffffffff1673ffffffffffffffffffffffffffffffffffffffff16815260200190815260200160002083611794565b905092915050565b6000600760008373ffffffffffffffffffffffffffffffffffffffff1673ffffffffffffffffffffffffffffffffffffffff16815260200190815260200160002060009054906101000a900473ffffffffffffffffffffffffffffffffffffffff169050919050565b61074561073f6111a7565b826118e5565b50565b600a5481565b600061079b600860008473ffffffffffffffffffffffffffffffffffffffff1673ffffffffffffffffffffffffffffffffffffffff1681526020019081526020016000208054905061110e565b9050919050565b60008060008373ffffffffffffffffffffffffffffffffffffffff1673ffffffffffffffffffffffffffffffffffffffff168152602001908152602001600020549050919050565b6000610833600560008473ffffffffffffffffffffffffffffffffffffffff1673ffffffffffffffffffffffffffffffffffffffff1681526020019081526020016000206119ff565b9050919050565b600043821061087e576040517f08c379a000000000000000000000000000000000000000000000000000000000815260040161087590612c21565b60405180910390fd5b610889600983611794565b9050919050565b60606004805461089f90612b41565b80601f01602080910402602001604051908101604052809291908181526020018280546108cb90612b41565b80156109185780601f106108ed57610100808354040283529160200191610918565b820191906000526020600020905b8154815290600101906020018083116108fb57829003601f168201915b5050505050905090565b600080600860008473ffffffffffffffffffffffffffffffffffffffff1673ffffffffffffffffffffffffffffffffffffffff16815260200190815260200160002080549050905060008114610a0a57600860008473ffffffffffffffffffffffffffffffffffffffff1673ffffffffffffffffffffffffffffffffffffffff1681526020019081526020016000206001826109be9190612c41565b815481106109cf576109ce612c75565b5b9060005260206000200160000160049054906101000a90047bffffffffffffffffffffffffffffffffffffffffffffffffffffffff16610a0d565b60005b7bffffffffffffffffffffffffffffffffffffffffffffffffffffffff16915050919050565b600080610a3e6111a7565b90506000610a4c8286610d13565b905083811015610a91576040517f08c379a0000000000000000000000000000000000000000000000000000000008152600401610a8890612d16565b60405180910390fd5b610a9e82868684036111af565b60019250505092915050565b600080610ab56111a7565b9050610ac2818585611404565b600191505092915050565b83421115610b10576040517f08c379a0000000000000000000000000000000000000000000000000000000008152600401610b0790612d82565b60405180910390fd5b6000610b72610b6a7fe48329057bfd03d55e49b547132e39cffd9c1820ad7b9d4c5307691425d15adf898989604051602001610b4f9493929190612da2565b60405160208183030381529060405280519060200120611a0d565b858585611a27565b9050610b7d81611a52565b8614610bbe576040517f08c379a0000000000000000000000000000000000000000000000000000000008152600401610bb590612e33565b60405180910390fd5b610bc881886118e5565b50505050505050565b83421115610c14576040517f08c379a0000000000000000000000000000000000000000000000000000000008152600401610c0b90612e9f565b60405180910390fd5b60007f6e71edae12b1b97f4d1f60370fef10105fa2faae0126114a169c64845d6126c9888888610c438c611a52565b89604051602001610c5996959493929190612ebf565b6040516020818303038152906040528051906020012090506000610c7c82611a0d565b90506000610c8c82878787611a27565b90508973ffffffffffffffffffffffffffffffffffffffff168173ffffffffffffffffffffffffffffffffffffffff1614610cfc576040517f08c379a0000000000000000000000000000000000000000000000000000000008152600401610cf390612f6c565b60405180910390fd5b610d078a8a8a6111af565b50505050505050505050565b6000600160008473ffffffffffffffffffffffffffffffffffffffff1673ffffffffffffffffffffffffffffffffffffffff16815260200190815260200160002060008373ffffffffffffffffffffffffffffffffffffffff1673ffffffffffffffffffffffffffffffffffffffff16815260200190815260200160002054905092915050565b610da26124aa565b600860008473ffffffffffffffffffffffffffffffffffffffff1673ffffffffffffffffffffffffffffffffffffffff1681526020019081526020016000208263ffffffff1681548110610df957610df8612c75565b5b906000526020600020016040518060400160405290816000820160009054906101000a900463ffffffff1663ffffffff1663ffffffff1681526020016000820160049054906101000a90047bffffffffffffffffffffffffffffffffffffffffffffffffffffffff167bffffffffffffffffffffffffffffffffffffffffffffffffffffffff167bffffffffffffffffffffffffffffffffffffffffffffffffffffffff1681525050905092915050565b610eb48282610f37565b610ebc611ab0565b7bffffffffffffffffffffffffffffffffffffffffffffffffffffffff16610ee26105af565b1115610f23576040517f08c379a0000000000000000000000000000000000000000000000000000000008152600401610f1a90612ffe565b60405180910390fd5b610f31600961108d83611ad4565b50505050565b600073ffffffffffffffffffffffffffffffffffffffff168273ffffffffffffffffffffffffffffffffffffffff1603610fa6576040517f08c379a0000000000000000000000000000000000000000000000000000000008152600401610f9d9061306a565b60405180910390fd5b610fb260008383611da3565b8060026000828254610fc49190612ba1565b92505081905550806000808473ffffffffffffffffffffffffffffffffffffffff1673ffffffffffffffffffffffffffffffffffffffff168152602001908152602001600020600082825401925050819055508173ffffffffffffffffffffffffffffffffffffffff16600073ffffffffffffffffffffffffffffffffffffffff167fddf252ad1be2c89b69c2b068fc378daa952ba7f163c4a11628f55a4df523b3ef8360405161107591906126b8565b60405180910390a361108960008383611da8565b5050565b6000818361109b9190612ba1565b905092915050565b60007bffffffffffffffffffffffffffffffffffffffffffffffffffffffff8016821115611106576040517f08c379a00000000000000000000000000000000000000000000000000000000081526004016110fd906130fc565b60405180910390fd5b819050919050565b600063ffffffff8016821115611159576040517f08c379a00000000000000000000000000000000000000000000000000000000081526004016111509061318e565b60405180910390fd5b819050919050565b61116c83838361118c565b611187611178846106cb565b611181846106cb565b83611db8565b505050565b505050565b6000818361119f9190612c41565b905092915050565b600033905090565b600073ffffffffffffffffffffffffffffffffffffffff168373ffffffffffffffffffffffffffffffffffffffff160361121e576040517f08c379a000000000000000000000000000000000000000000000000000000000815260040161121590613220565b60405180910390fd5b600073ffffffffffffffffffffffffffffffffffffffff168273ffffffffffffffffffffffffffffffffffffffff160361128d576040517f08c379a0000000000000000000000000000000000000000000000000000000008152600401611284906132b2565b60405180910390fd5b80600160008573ffffffffffffffffffffffffffffffffffffffff1673ffffffffffffffffffffffffffffffffffffffff16815260200190815260200160002060008473ffffffffffffffffffffffffffffffffffffffff1673ffffffffffffffffffffffffffffffffffffffff168152602001908152602001600020819055508173ffffffffffffffffffffffffffffffffffffffff168373ffffffffffffffffffffffffffffffffffffffff167f8c5be1e5ebec7d5bd14f71427d1e84f3dd0314c0f7b2291e5b200ac8c7c3b9258360405161136b91906126b8565b60405180910390a3505050565b60006113848484610d13565b90507fffffffffffffffffffffffffffffffffffffffffffffffffffffffffffffffff81146113fe57818110156113f0576040517f08c379a00000000000000000000000000000000000000000000000000000000081526004016113e79061331e565b60405180910390fd5b6113fd84848484036111af565b5b50505050565b600073ffffffffffffffffffffffffffffffffffffffff168373ffffffffffffffffffffffffffffffffffffffff1603611473576040517f08c379a000000000000000000000000000000000000000000000000000000000815260040161146a906133b0565b60405180910390fd5b600073ffffffffffffffffffffffffffffffffffffffff168273ffffffffffffffffffffffffffffffffffffffff16036114e2576040517f08c379a00000000000000000000000000000000000000000000000000000000081526004016114d990613442565b60405180910390fd5b6114ed838383611da3565b60008060008573ffffffffffffffffffffffffffffffffffffffff1673ffffffffffffffffffffffffffffffffffffffff16815260200190815260200160002054905081811015611573576040517f08c379a000000000000000000000000000000000000000000000000000000000815260040161156a906134d4565b60405180910390fd5b8181036000808673ffffffffffffffffffffffffffffffffffffffff1673ffffffffffffffffffffffffffffffffffffffff16815260200190815260200160002081905550816000808573ffffffffffffffffffffffffffffffffffffffff1673ffffffffffffffffffffffffffffffffffffffff168152602001908152602001600020600082825401925050819055508273ffffffffffffffffffffffffffffffffffffffff168473ffffffffffffffffffffffffffffffffffffffff167fddf252ad1be2c89b69c2b068fc378daa952ba7f163c4a11628f55a4df523b3ef8460405161166191906126b8565b60405180910390a3611674848484611da8565b50505050565b60007f000000000000000000000000000000000000000000000000000000000000000073ffffffffffffffffffffffffffffffffffffffff163073ffffffffffffffffffffffffffffffffffffffff161480156116f657507f000000000000000000000000000000000000000000000000000000000000000046145b15611723577f00000000000000000000000000000000000000000000000000000000000000009050611791565b61178e7f00000000000000000000000000000000000000000000000000000000000000007f00000000000000000000000000000000000000000000000000000000000000007f0000000000000000000000000000000000000000000000000000000000000000611fb1565b90505b90565b60008083805490509050600080829050600583111561180a5760006117b884611feb565b846117c39190612c41565b9050856117d088836120e4565b60000160009054906101000a900463ffffffff1663ffffffff1611156117f857809150611808565b6001816118059190612ba1565b92505b505b5b8082101561186a57600061181f83836120f9565b90508561182c88836120e4565b60000160009054906101000a900463ffffffff1663ffffffff16111561185457809150611864565b6001816118619190612ba1565b92505b5061180b565b600081146118b957611888866001836118839190612c41565b6120e4565b60000160049054906101000a90047bffffffffffffffffffffffffffffffffffffffffffffffffffffffff166118bc565b60005b7bffffffffffffffffffffffffffffffffffffffffffffffffffffffff16935050505092915050565b60006118f0836106cb565b905060006118fd846107a2565b905082600760008673ffffffffffffffffffffffffffffffffffffffff1673ffffffffffffffffffffffffffffffffffffffff16815260200190815260200160002060006101000a81548173ffffffffffffffffffffffffffffffffffffffff021916908373ffffffffffffffffffffffffffffffffffffffff1602179055508273ffffffffffffffffffffffffffffffffffffffff168273ffffffffffffffffffffffffffffffffffffffff168573ffffffffffffffffffffffffffffffffffffffff167f3134e8a2e6d97e929a7e54011ea5485d7d196dd5f0ba4d4ef95803e8e3fc257f60405160405180910390a46119f9828483611db8565b50505050565b600081600001549050919050565b6000611a20611a1a61167a565b8361211f565b9050919050565b6000806000611a3887878787612152565b91509150611a4581612234565b8192505050949350505050565b600080600560008473ffffffffffffffffffffffffffffffffffffffff1673ffffffffffffffffffffffffffffffffffffffff1681526020019081526020016000209050611a9f816119ff565b9150611aaa8161239a565b50919050565b60007bffffffffffffffffffffffffffffffffffffffffffffffffffffffff905090565b6000806000858054905090506000808214611ba357611aff87600184611afa9190612c41565b6120e4565b6040518060400160405290816000820160009054906101000a900463ffffffff1663ffffffff1663ffffffff1681526020016000820160049054906101000a90047bffffffffffffffffffffffffffffffffffffffffffffffffffffffff167bffffffffffffffffffffffffffffffffffffffffffffffffffffffff167bffffffffffffffffffffffffffffffffffffffffffffffffffffffff1681525050611bdf565b6040518060400160405280600063ffffffff16815260200160007bffffffffffffffffffffffffffffffffffffffffffffffffffffffff168152505b905080602001517bffffffffffffffffffffffffffffffffffffffffffffffffffffffff169350611c1484868863ffffffff16565b9250600082118015611c2f575043816000015163ffffffff16145b15611ca957611c3d836110a3565b611c5388600185611c4e9190612c41565b6120e4565b60000160046101000a8154817bffffffffffffffffffffffffffffffffffffffffffffffffffffffff02191690837bffffffffffffffffffffffffffffffffffffffffffffffffffffffff160217905550611d99565b866040518060400160405280611cbe4361110e565b63ffffffff168152602001611cd2866110a3565b7bffffffffffffffffffffffffffffffffffffffffffffffffffffffff168152509080600181540180825580915050600190039060005260206000200160009091909190915060008201518160000160006101000a81548163ffffffff021916908363ffffffff16021790555060208201518160000160046101000a8154817bffffffffffffffffffffffffffffffffffffffffffffffffffffffff02191690837bffffffffffffffffffffffffffffffffffffffffffffffffffffffff16021790555050505b5050935093915050565b505050565b611db3838383611161565b505050565b8173ffffffffffffffffffffffffffffffffffffffff168373ffffffffffffffffffffffffffffffffffffffff1614158015611df45750600081115b15611fac57600073ffffffffffffffffffffffffffffffffffffffff168373ffffffffffffffffffffffffffffffffffffffff1614611ed257600080611e7b600860008773ffffffffffffffffffffffffffffffffffffffff1673ffffffffffffffffffffffffffffffffffffffff16815260200190815260200160002061119185611ad4565b915091508473ffffffffffffffffffffffffffffffffffffffff167fdec2bacdd2f05b59de34da9b523dff8be42e5e38e818c82fdb0bae774387a7248383604051611ec79291906134f4565b60405180910390a250505b600073ffffffffffffffffffffffffffffffffffffffff168273ffffffffffffffffffffffffffffffffffffffff1614611fab57600080611f54600860008673ffffffffffffffffffffffffffffffffffffffff1673ffffffffffffffffffffffffffffffffffffffff16815260200190815260200160002061108d85611ad4565b915091508373ffffffffffffffffffffffffffffffffffffffff167fdec2bacdd2f05b59de34da9b523dff8be42e5e38e818c82fdb0bae774387a7248383604051611fa09291906134f4565b60405180910390a250505b5b505050565b60008383834630604051602001611fcc95949392919061351d565b6040516020818303038152906040528051906020012090509392505050565b6000808203611ffd57600090506120df565b6000600161200a846123b0565b901c6001901b9050600181848161202457612023613570565b5b048201901c9050600181848161203d5761203c613570565b5b048201901c9050600181848161205657612055613570565b5b048201901c9050600181848161206f5761206e613570565b5b048201901c9050600181848161208857612087613570565b5b048201901c905060018184816120a1576120a0613570565b5b048201901c905060018184816120ba576120b9613570565b5b048201901c90506120db818285816120d5576120d4613570565b5b04612491565b9150505b919050565b60008260005281602060002001905092915050565b6000600282841861210a919061359f565b8284166121179190612ba1565b905092915050565b60008282604051602001612134929190613648565b60405160208183030381529060405280519060200120905092915050565b6000807f7fffffffffffffffffffffffffffffff5d576e7357a4501ddfe92f46681b20a08360001c111561218d57600060039150915061222b565b6000600187878787604051600081526020016040526040516121b2949392919061367f565b6020604051602081039080840390855afa1580156121d4573d6000803e3d6000fd5b505050602060405103519050600073ffffffffffffffffffffffffffffffffffffffff168173ffffffffffffffffffffffffffffffffffffffff16036122225760006001925092505061222b565b80600092509250505b94509492505050565b60006004811115612248576122476136c4565b5b81600481111561225b5761225a6136c4565b5b03156123975760016004811115612275576122746136c4565b5b816004811115612288576122876136c4565b5b036122c8576040517f08c379a00000000000000000000000000000000000000000000000000000000081526004016122bf9061373f565b60405180910390fd5b600260048111156122dc576122db6136c4565b5b8160048111156122ef576122ee6136c4565b5b0361232f576040517f08c379a0000000000000000000000000000000000000000000000000000000008152600401612326906137ab565b60405180910390fd5b60036004811115612343576123426136c4565b5b816004811115612356576123556136c4565b5b03612396576040517f08c379a000000000000000000000000000000000000000000000000000000000815260040161238d9061383d565b60405180910390fd5b5b50565b6001816000016000828254019250508190555050565b600080600090506000608084901c11156123d257608083901c92506080810190505b6000604084901c11156123ed57604083901c92506040810190505b6000602084901c111561240857602083901c92506020810190505b6000601084901c111561242357601083901c92506010810190505b6000600884901c111561243e57600883901c92506008810190505b6000600484901c111561245957600483901c92506004810190505b6000600284901c111561247457600283901c92506002810190505b6000600184901c1115612488576001810190505b80915050919050565b60008183106124a057816124a2565b825b905092915050565b6040518060400160405280600063ffffffff16815260200160007bffffffffffffffffffffffffffffffffffffffffffffffffffffffff1681525090565b600081519050919050565b600082825260208201905092915050565b60005b83811015612522578082015181840152602081019050612507565b60008484015250505050565b6000601f19601f8301169050919050565b600061254a826124e8565b61255481856124f3565b9350612564818560208601612504565b61256d8161252e565b840191505092915050565b60006020820190508181036000830152612592818461253f565b905092915050565b600080fd5b600073ffffffffffffffffffffffffffffffffffffffff82169050919050565b60006125ca8261259f565b9050919050565b6125da816125bf565b81146125e557600080fd5b50565b6000813590506125f7816125d1565b92915050565b6000819050919050565b612610816125fd565b811461261b57600080fd5b50565b60008135905061262d81612607565b92915050565b6000806040838503121561264a5761264961259a565b5b6000612658858286016125e8565b92505060206126698582860161261e565b9150509250929050565b60008115159050919050565b61268881612673565b82525050565b60006020820190506126a3600083018461267f565b92915050565b6126b2816125fd565b82525050565b60006020820190506126cd60008301846126a9565b92915050565b6000806000606084860312156126ec576126eb61259a565b5b60006126fa868287016125e8565b935050602061270b868287016125e8565b925050604061271c8682870161261e565b9150509250925092565b600060ff82169050919050565b61273c81612726565b82525050565b60006020820190506127576000830184612733565b92915050565b6000819050919050565b6127708161275d565b82525050565b600060208201905061278b6000830184612767565b92915050565b6000602082840312156127a7576127a661259a565b5b60006127b5848285016125e8565b91505092915050565b6127c7816125bf565b82525050565b60006020820190506127e260008301846127be565b92915050565b600063ffffffff82169050919050565b612801816127e8565b82525050565b600060208201905061281c60008301846127f8565b92915050565b6000602082840312156128385761283761259a565b5b60006128468482850161261e565b91505092915050565b61285881612726565b811461286357600080fd5b50565b6000813590506128758161284f565b92915050565b6128848161275d565b811461288f57600080fd5b50565b6000813590506128a18161287b565b92915050565b60008060008060008060c087890312156128c4576128c361259a565b5b60006128d289828a016125e8565b96505060206128e389828a0161261e565b95505060406128f489828a0161261e565b945050606061290589828a01612866565b935050608061291689828a01612892565b92505060a061292789828a01612892565b9150509295509295509295565b600080600080600080600060e0888a0312156129535761295261259a565b5b60006129618a828b016125e8565b97505060206129728a828b016125e8565b96505060406129838a828b0161261e565b95505060606129948a828b0161261e565b94505060806129a58a828b01612866565b93505060a06129b68a828b01612892565b92505060c06129c78a828b01612892565b91505092959891949750929550565b600080604083850312156129ed576129ec61259a565b5b60006129fb858286016125e8565b9250506020612a0c858286016125e8565b9150509250929050565b612a1f816127e8565b8114612a2a57600080fd5b50565b600081359050612a3c81612a16565b92915050565b60008060408385031215612a5957612a5861259a565b5b6000612a67858286016125e8565b9250506020612a7885828601612a2d565b9150509250929050565b612a8b816127e8565b82525050565b60007bffffffffffffffffffffffffffffffffffffffffffffffffffffffff82169050919050565b612ac281612a91565b82525050565b604082016000820151612ade6000850182612a82565b506020820151612af16020850182612ab9565b50505050565b6000604082019050612b0c6000830184612ac8565b92915050565b7f4e487b7100000000000000000000000000000000000000000000000000000000600052602260045260246000fd5b60006002820490506001821680612b5957607f821691505b602082108103612b6c57612b6b612b12565b5b50919050565b7f4e487b7100000000000000000000000000000000000000000000000000000000600052601160045260246000fd5b6000612bac826125fd565b9150612bb7836125fd565b9250828201905080821115612bcf57612bce612b72565b5b92915050565b7f4552433230566f7465733a20626c6f636b206e6f7420796574206d696e656400600082015250565b6000612c0b601f836124f3565b9150612c1682612bd5565b602082019050919050565b60006020820190508181036000830152612c3a81612bfe565b9050919050565b6000612c4c826125fd565b9150612c57836125fd565b9250828203905081811115612c6f57612c6e612b72565b5b92915050565b7f4e487b7100000000000000000000000000000000000000000000000000000000600052603260045260246000fd5b7f45524332303a2064656372656173656420616c6c6f77616e63652062656c6f7760008201527f207a65726f000000000000000000000000000000000000000000000000000000602082015250565b6000612d006025836124f3565b9150612d0b82612ca4565b604082019050919050565b60006020820190508181036000830152612d2f81612cf3565b9050919050565b7f4552433230566f7465733a207369676e61747572652065787069726564000000600082015250565b6000612d6c601d836124f3565b9150612d7782612d36565b602082019050919050565b60006020820190508181036000830152612d9b81612d5f565b9050919050565b6000608082019050612db76000830187612767565b612dc460208301866127be565b612dd160408301856126a9565b612dde60608301846126a9565b95945050505050565b7f4552433230566f7465733a20696e76616c6964206e6f6e636500000000000000600082015250565b6000612e1d6019836124f3565b9150612e2882612de7565b602082019050919050565b60006020820190508181036000830152612e4c81612e10565b9050919050565b7f45524332305065726d69743a206578706972656420646561646c696e65000000600082015250565b6000612e89601d836124f3565b9150612e9482612e53565b602082019050919050565b60006020820190508181036000830152612eb881612e7c565b9050919050565b600060c082019050612ed46000830189612767565b612ee160208301886127be565b612eee60408301876127be565b612efb60608301866126a9565b612f0860808301856126a9565b612f1560a08301846126a9565b979650505050505050565b7f45524332305065726d69743a20696e76616c6964207369676e61747572650000600082015250565b6000612f56601e836124f3565b9150612f6182612f20565b602082019050919050565b60006020820190508181036000830152612f8581612f49565b9050919050565b7f4552433230566f7465733a20746f74616c20737570706c79207269736b73206f60008201527f766572666c6f77696e6720766f74657300000000000000000000000000000000602082015250565b6000612fe86030836124f3565b9150612ff382612f8c565b604082019050919050565b6000602082019050818103600083015261301781612fdb565b9050919050565b7f45524332303a206d696e7420746f20746865207a65726f206164647265737300600082015250565b6000613054601f836124f3565b915061305f8261301e565b602082019050919050565b6000602082019050818103600083015261308381613047565b9050919050565b7f53616665436173743a2076616c756520646f65736e27742066697420696e203260008201527f3234206269747300000000000000000000000000000000000000000000000000602082015250565b60006130e66027836124f3565b91506130f18261308a565b604082019050919050565b60006020820190508181036000830152613115816130d9565b9050919050565b7f53616665436173743a2076616c756520646f65736e27742066697420696e203360008201527f3220626974730000000000000000000000000000000000000000000000000000602082015250565b60006131786026836124f3565b91506131838261311c565b604082019050919050565b600060208201905081810360008301526131a78161316b565b9050919050565b7f45524332303a20617070726f76652066726f6d20746865207a65726f2061646460008201527f7265737300000000000000000000000000000000000000000000000000000000602082015250565b600061320a6024836124f3565b9150613215826131ae565b604082019050919050565b60006020820190508181036000830152613239816131fd565b9050919050565b7f45524332303a20617070726f766520746f20746865207a65726f20616464726560008201527f7373000000000000000000000000000000000000000000000000000000000000602082015250565b600061329c6022836124f3565b91506132a782613240565b604082019050919050565b600060208201905081810360008301526132cb8161328f565b9050919050565b7f45524332303a20696e73756666696369656e7420616c6c6f77616e6365000000600082015250565b6000613308601d836124f3565b9150613313826132d2565b602082019050919050565b60006020820190508181036000830152613337816132fb565b9050919050565b7f45524332303a207472616e736665722066726f6d20746865207a65726f20616460008201527f6472657373000000000000000000000000000000000000000000000000000000602082015250565b600061339a6025836124f3565b91506133a58261333e565b604082019050919050565b600060208201905081810360008301526133c98161338d565b9050919050565b7f45524332303a207472616e7366657220746f20746865207a65726f206164647260008201527f6573730000000000000000000000000000000000000000000000000000000000602082015250565b600061342c6023836124f3565b9150613437826133d0565b604082019050919050565b6000602082019050818103600083015261345b8161341f565b9050919050565b7f45524332303a207472616e7366657220616d6f756e742065786365656473206260008201527f616c616e63650000000000000000000000000000000000000000000000000000602082015250565b60006134be6026836124f3565b91506134c982613462565b604082019050919050565b600060208201905081810360008301526134ed816134b1565b9050919050565b600060408201905061350960008301856126a9565b61351660208301846126a9565b9392505050565b600060a0820190506135326000830188612767565b61353f6020830187612767565b61354c6040830186612767565b61355960608301856126a9565b61356660808301846127be565b9695505050505050565b7f4e487b7100000000000000000000000000000000000000000000000000000000600052601260045260246000fd5b60006135aa826125fd565b91506135b5836125fd565b9250826135c5576135c4613570565b5b828204905092915050565b600081905092915050565b7f1901000000000000000000000000000000000000000000000000000000000000600082015250565b60006136116002836135d0565b915061361c826135db565b600282019050919050565b6000819050919050565b61364261363d8261275d565b613627565b82525050565b600061365382613604565b915061365f8285613631565b60208201915061366f8284613631565b6020820191508190509392505050565b60006080820190506136946000830187612767565b6136a16020830186612733565b6136ae6040830185612767565b6136bb6060830184612767565b95945050505050565b7f4e487b7100000000000000000000000000000000000000000000000000000000600052602160045260246000fd5b7f45434453413a20696e76616c6964207369676e61747572650000000000000000600082015250565b60006137296018836124f3565b9150613734826136f3565b602082019050919050565b600060208201905081810360008301526137588161371c565b9050919050565b7f45434453413a20696e76616c6964207369676e6174757265206c656e67746800600082015250565b6000613795601f836124f3565b91506137a08261375f565b602082019050919050565b600060208201905081810360008301526137c481613788565b9050919050565b7f45434453413a20696e76616c6964207369676e6174757265202773272076616c60008201527f7565000000000000000000000000000000000000000000000000000000000000602082015250565b60006138276022836124f3565b9150613832826137cb565b604082019050919050565b600060208201905081810360008301526138568161381a565b905091905056fea264697066735822122029c27b06118068784e96acd88eb656f7ad44b802220a4961a5af91b4b7b7a02364736f6c63430008120033",
  "linkReferences": {},
  "deployedLinkReferences": {}
}